:040000000C944E000E
:100004000C9400000C9400000C9400000C9400006C
:100014000C9400000C9400000C9400000C9400005C
:100024000C9400000C9400000C9400000C9400004C
:100034000C9400000C9400000C9400000C9400003C
:100044000C9400000C9400000C9400000C9400002C
:100054001027E80364000A000100001000011000EA
:1000640001000000000000002564204465766963F7
:10007400657320666F756E640054656D703A202553
:10008400642E256420B0430080C00600060066008C
:10009400020082028C000000F894EE27ECBBF1E031
:1000A400F5BFE5BF8DE0A2E0BB27ED938A95E9F7A4
:1000B40080E098E0A0E6ED930197E9F7EEE8F0E040
:1000C40085919591009761F0A591B5910590159052
:1000D400BF01F00105900D920197E1F7FB01F0CF0C
:1000E400EFE5EDBFE8E0EEBFC0E6D2E00C947A00A5
:1000F400E0E0EABBEBBBE7BBE8BBE4BBE5BBE1BBD1
:10010400E2BBE3BFE2BFECBFEFBDEEBDEDBDECBDB6
:10011400E7BDE6BDEBBDEABDE9BDE8BDE2BDE5BDB9
:10012400E4BDE3BDE9BFE5BFE4BFEAB9E0E8E8B98F
:10013400E0E0E0BFE6B9EDB9E6BF85D3E0EFEA93CE
:10014400A9E6B2E0D0D35E2EA0E104D1C9D2CCD2CC
:10015400ECE6F0E0FA93EA93E52DFF27662777278C
:1001640063D384E073D22896A2E7B2E0E4D0A4EF8C
:10017400B1E05FD3A0E0B0E068D05F01D501EAE070
:10018400F0E02ED33F01D501A619B709EAE0F0E06B
:1001940022D34F01A9D2EDE7F0E0FA93EA93F401F8
:1001A400F0D242D3F301EDD23FD388E04FD22C9664
:1001B40097D2A2E7B2E0BFD0E4E1F0E0E815F90598
:1001C40014F4B89A01C0B898A8E8B3E132D396D031
:1001D400D1CFFFCFBED29D0136D3E03011F4E0E0A1
:1001E400B6C0022E032A61F0A5E573D310E0D9014D
:1001F4002F5F3F4FAC916DD31F5F1830C0F302C027
:10020400ACEC67D3E1E0A3C0A2D2AD01E3DFE03000
:1002140011F4E0E017C0AEEB5CD310E020E632E06E
:100224003F932F932F5F3F4F4FD3AF91BF91EC93E9
:100234001F5F1930A8F3E0E6F2E0FA93EA93A9E02D
:10024400C1D3A4D28BD2269608951A930A938D0112
:10025400C1DFE03019F4E1EFF8ED19C0A4E439D3BB
:10026400A6E2B2E0E6D2D801CFDFE03019F4E1EF44
:10027400F8ED0DC0E8D2F0916102E0E0DF01E09119
:100284006002F0E0EA2BFB2BA5E0B0E08CD20991F0
:10029400199108951A931A2FE2B3EF70AE2FE12F3C
:1002A400E07FEA2BE2BB8DE08A95F1F7C19A8DE0FD
:1002B4008A95F1F7C1988DE08A95F1F774C0AA93F5
:1002C400A881E8DFE881E295E883A881E3DF85E897
:1002D4008A95F1F7219608951A930A931A2F0A81A1
:1002E400E12FF0E0EE57FD4FE081E00FAE2FE7DFA6
:1002F400402ED12E1981088123960895A2E0F9D1C8
:10030400ACE0DDDFA1E0F5D1E0E0DE2E4E2E089575
:100314001A931A2F1A3011F04C1438F0E0E0EA93D3
:10032400D394AD2DD9DF1A30F1F14394C29AA12FA1
:10033400C6DFC29838C00DD29D01D9012F5F3F4F4F
:10034400EC911E2FE03019F0A12FE2DFF6CF08D296
:10035400249608951A931A2FE1B3E06FE1BBB99A7A
:10036400BA9AA09AC198C298A898C12EE12FE058D1
:10037400E0938402E12FE054E0938502A4E1B0E02D
:1003840058D2BBD1BAD1B9D1A0E284DF88EC90E0D5
:100394000197F1F7A8E293DFA4E091DFA5E88FDFEE
:1003A400A6E08DDFABDF19910895D1D19D015E8167
:1003B400129632D23097E1F0D90114962DD28F01E2
:1003C400309759F00230E0E01E0760F0F8013197F1
:1003D4008F01D9011496ED93FC93D901129694D10F
:1003E40031975083D90118D2FF230AF08DD105C06B
:1003F400D901EFEFFFEFED93FC93B0D12796089569
:10040400BA93AA932697A3D110E0AC85BD85E0E00A
:10041400F0E0ED93FC93EA89FB893196EA8BFB8B40
:100424003197E4912E2FE03009F409C1E12FE03037
:1004340031F4253211F411E001C06CD1FFC0E13078
:10044400A1F4253211F466D1F8C012E040E000E0D6
:100454002D3211F401E0F2C02B3211F44BE2EEC064
:10046400203211F440E2EAC002C0E23039F450E034
:1004740013E0203311F40068E1C003C0E33009F055
:10048400DDC0203310F02A3308F007C0AAE05A9FD9
:10049400502DE22FE0535E0FD1C0E22FE33639F442
:1004A40040D1E889F989A481AA9341D1C6C0E33730
:1004B40029F437D142D1FBD01E2F07C0E03749F4CD
:1004C40030D13BD100D11E2F086002600F7730E09D
:1004D40038C0E43611F0E93611F4046002C0E5379F
:1004E40031F4E4E5F0E0EE83FF8315E00CC0E83579
:1004F40011F4086003C0E83709F09FC0EEE5F0E0AE
:10050400EE83FF8314E002FF15C00BD1A889B989DB
:100514001496ED91FD91EA87FB87AB85AA2322F41B
:100524002CD1EA87FB874DE2403011F01F5F01C0F8
:100534000B7F07C0F6D0A889B98914966DD1EA87D4
:10054400FB8700FD10C0151770F407FF08C002FFF9
:1005540004C00B7F242F115001C020E301C020E20E
:10056400D9D05150F0CF312F01FF16C0303099F05F
:1005740003FF06C0EE81FF812591EE83FF8305C052
:10058400AE81BF812D91AE83BF83C4D0503009F0BA
:1005940051503150EBCF48C020E3EE81FF8140D170
:1005A400E887F987EE81FF813296EE83FF83E88541
:1005B400F985AA85BB85AE17BF0750F02F5FA885C4
:1005C400B985EA85FB85EA1BFB0BEA87FB87EFCF3E
:1005D4002A3328F003FF02C0295F01C0295D04FD0E
:1005E40019C0213320F4A885B985119709F409C0ED
:1005F400531710F000FF01C011C020E207FF0AC02A
:1006040020E3006102FF06C00B7F4A9390D0503074
:1006140009F051507FD0503009F051503150A88525
:10062400B985129708F0B8CF00FF07C0503029F001
:100634005150E0E2EA937BD0F9CF10E0ECCEAC85E8
:10064400BD85ED91FD918AD064960895FF92F82EB0
:1006540026977DD0FE0189D046855785042E052A2C
:1006640019F4EFEFFFEF1FC0DE01189682D08D0161
:1006740048875987E0E0EA87EB87DE011C9679D04A
:10068400ED91FD91FA93EA931A930A93E7EDF1E061
:10069400FA93EA93DE011C96B3DE9F01A885B9851F
:1006A400E0E0EC93F9015AD02C96FF900895BA93A8
:1006B400AA93A991B991EE27FF276D91662311F0B2
:1006C4003196FBCF0895BA93AA93AA27BB27E99141
:1006D400F9910590002011F01196FBCFFD010895CA
:1006E400E0E0EA93A0E0F8CDE2E7F2E0FA93EA93DF
:1006F4000895E5DDA3E0B0E09CC0A0E3CBDD88EC89
:1007040090E00197F1F70895ED91FD913196FE93F4
:10071400EE9308952A93AD85BE85EF85F8890995F2
:100724000895E889F9893497E88BF98B0895AD85A4
:10073400BE85EF85F88909950895A889B989149625
:10074400ED91FD91EE83FF83AE81BF8108955A93AD
:100754004A933A932A931A930A9308955D814C819C
:100764003B812A811981088108950024EF0DF01D31
:1007740008950024AF0DB01D0895F195E195F04062
:1007840008956F2F660F660B762F0895EE23E1E030
:1007940009F0EE270895FA9FF02DEB9FF00DEA9FE4
:1007A400E02DF10D08952AD0F6DF0EF4E6DF08956A
:1007B4000024112490E1AA0FBB1F001C111C0E1A67
:1007C4001F0A18F40E0E1F1E01C0A1609A9599F716
:1007D400FD01D001089512D0EBDF0EF4CEDF0895B1
:1007E400E894B7FF04C0B195A195B0406894F7FDB3
:1007F400C4DFDEDFFD010EF4C0DF0895E894F7FFE7
:1008040002C0BBDF6894B7FF06C0B195A195B040A4
:1008140000F8039400FA0895ED91FC91119708955E
:100824000590F491E02D08957A936A93FA93EA93EC
:100834000895109639F0A89580ED97E00197F1F7A7
:100844001197C9F70895EE27D898D09A80EC93E0D1
:100854000197F1F7D09885E28A95F1F7C89B08953E
:100864008BEC8A95F1F7C89BE1E08CE093E001976B
:10087400F1F70895D09A85E08A95F1F7D0988DE143
:100884008A95F1F78894C8990894E79585ED8A9537
:10089400F1F70895E894D09A85E08A95F1F770FD10
:1008A400D09883E28A95F1F7C89903C070FF03C01A
:1008B400089570FF089588EC8A95F1F7D0988DE03B
:1008C4008A95F1F76894089568E0D4DF6A95E9F7AA
:1008D40008957A2F68E0EE27DDDF26F477956A9590
:1008E400D9F7E39508954F935F9311244427012C7E
:1008F4001124A9DFEE2301F1AF93A881EADFAF91C0
:1009040051E0501598F4B6DFE7FD08C0B3DFE7FD0A
:1009140006C03FD0892319F4152E01C0ABDF39D0AE
:10092400892370E009F071E0B5DF1EC0A3DFE7FFA3
:100934000BC0A0DFE7FF05C0E42F5F914F91219624
:100944000895689437D0EFCF95DFE7FF01C003C067
:10095400501531F0152EE8942DD077279BDF04C075
:10096400689428D071E096DF5395513454F282DFB5
:10097400EE1FEE1FE1701896EC9318974395112023
:10098400D9F259E0EC911996EC9318975A95D1F74E
:10099400AECFE52FEA956E2FE695E695E695FF270F
:1009A400EA0FFB1F808191E0677019F0990F6A9537
:1009B400FCCF0895EEDF1EF09095892301C0892BAA
:1009C40080830895EE27AA2389F08A2F68E1A881FD
:1009D400B98198E0FD917F2F7E27779508F4E6276B
:1009E400E795F6959A95B9F78A9599F72296089519
:00000001FF
