:100000000C942A000C943F000C943F000C943F0089
:100010000C943F000C943F000C943F000C943F0064
:100020000C943F000C943F000C943F000C943F0054
:100030000C943F000C943F000C943F000C943F0044
:100040000C943F000C943F000C943F000C943F0034
:100050000C943F0011241FBECFE5D8E0DEBFCDBF1A
:1000600010E0A0E6B0E0EAEBF3E002C005900D92EC
:10007000AC3AB107D9F70E9447010C94DB010C940C
:10008000000087B3807F87BB969A93980000C49A3C
:10009000000086B38295807F0000C4980000C49A57
:1000A000000096B30000C4980000882384F396985B
:1000B00087B38F6087BB0895282F22952F708F708C
:1000C000611102C0939801C0939A0000C49A98B33A
:1000D000907F922B98BB0000C4980000C49A98B3FC
:1000E000907F892B88BB0000C49800000E944100CB
:1000F00008950F931F93CF93DF938C01FC018081B0
:10010000882309F18532A9F4E8012196F80181815B
:100110008053883020F461E00E945C000EC061E0F2
:1001200085E20E945C0061E0F80181810E945C0030
:1001300004C061E00E945C00E8018E010F5F1F4F68
:1001400089818111DFCFDF91CF911F910F910895A8
:10015000EF92FF920F931F93CF93DF9300D000D0C5
:100160001F92CDB7DEB77B01FE01319625E0DF019E
:100170001D922A95E9F7009759F035962AE030E06C
:10018000B9010E94B3018293862F972F0097C1F780
:10019000BFEFEB16FB0669F4898181111EC0FE01D9
:1001A000329600E010E00F5F1F4F81918823D9F352
:1001B00010C005E010E00E191F090BC0F801819175
:1001C0008F0161E0805D0E945C000E151F05B1F794
:1001D00011C0053011051CF00DC000E010E081E0F9
:1001E00090E08C0F9D1F080F191F7E0196E0E90E0D
:1001F000F11CE4CF0F900F900F900F900F90DF91B4
:10020000CF911F910F91FF90EF900895843178F472
:10021000623031F0633031F0613029F4806403C022
:100220008C5E01C08C5A60E080680E945C0008957A
:10023000CF93C82F8BE49DE10197F1F700C0000038
:1002400097B39F6097BBBC9A8B9A8E9A98B3907F16
:1002500098BBC498969893980000C49AC19A0000DD
:10026000C49800000E94410060E08C2F8C600E94C6
:100270005C0060E088E20E945C0060E080E40E9434
:100280005C0060E080E00E940601CF9108950F932A
:100290001F93CF93DF9383E00E94180160E081E019
:1002A0000E945C0080E690E00E94790061E080E0BE
:1002B0000E9406018AE690E00E94790000E010E0CA
:1002C000C0E0D0E061E089E00E94060163E070E0F8
:1002D000C8010E94A80061E08CE00E94060183E74B
:1002E00090E00E947900CE010197F1F7CE010197CD
:1002F000F1F7CE010197F1F7CE010197F1F70F5F0A
:100300001F4F03361105F1F660E081E00E945C00AA
:1003100085E790E00E94790061E080E00E9406019C
:1003200081E890E00E94790084E620E030E0F90165
:100330003197F1F78150D9F760E081E00E945C00CD
:1003400082E990E00E94790061E080E00E9406016D
:100350008EE990E00E94790080E090E0DF91CF91FB
:100360001F910F91089597FB072E16F4009407D064
:1003700077FD09D00E94C70107FC05D03EF4909597
:1003800081959F4F0895709561957F4F0895AA1BA1
:10039000BB1B51E107C0AA1FBB1FA617B70710F070
:1003A000A61BB70B881F991F5A95A9F780959095A2
:0A03B000BC01CD010895F894FFCFC1
:1003BA00436F6E677261747320004C6F6164696E7B
:1003CA00672000250048656C6C6F20776F726C643B
:1003DA0000427920596F75724E616D6520486572C9
:1003EA0065002020202065587472656D6500202004
:0C03FA00456C656374726F6E696373007C
:00000001FF
