S01000004B445F4C434420322E7372656301
S11300000C942A000C943F000C943F000C943F0085
S11300100C943F000C943F000C943F000C943F0060
S11300200C943F000C943F000C943F000C943F0050
S11300300C943F000C943F000C943F000C943F0040
S11300400C943F000C943F000C943F000C943F0030
S11300500C943F0011241FBECFE5D8E0DEBFCDBF16
S113006010E0A0E6B0E0ECEBF1E002C005900D92E8
S1130070AA37B107D9F70E94C7000C94DC000C948E
S1130080000080FF02C0949A01C0949881FF02C0CE
S1130090959A01C0959882FF02C0969A01C09698DD
S11300A083FF02C0979A089597980895CF93C82F15
S11300B0C19A82958F700E944100C198C19A8C2F79
S11300C00E944100C19880E18A95F1F700C0CF9168
S11300D00895C2980E9456000895C29A0E9456003C
S11300E00895CF93DF93EC018881882331F0219622
S11300F00E946D0089918111FBCFDF91CF9108950A
S113010090E4699F800D112480680E94690008951D
S1130110CF938C9A8D9A8E9A8F9AB99ABA9A85EAC5
S11301209EE00197F1F700C00000C298C198C3E0B7
S1130130C19A83E00E944100C19881EE94E0019746
S1130140F1F700C00000C15099F7C19A82E00E9403
S11301504100C19889EF90E00197F1F700C00000D9
S113016088E20E94690088E00E94690081E00E94A0
S1130170690083EF91E00197F1F700C0000086E089
S11301800E9469008CE00E946900CF9108950E944A
S1130190880060E080E00E94800080E690E00E9499
S11301A0710061E080E00E94800081E790E00E949D
S10F01B0710080E090E00895F894FFCF07
S11301BC4E6174616C696F20706F6B617A756A65DE
S10D01CC0074656B7374207844001E
S9030000FC
