S0180000344C616D706B695F53746172745042302E737265634B
S11300000C942A000C9434000C9434000C943400A6
S11300100C9434000C9434000C9434000C9434008C
S11300200C9434000C9434000C9434000C9434007C
S11300300C9434000C9434000C9434000C9434006C
S11300400C9434000C9434000C9434000C9434005C
S11300500C94340011241FBECFE5D8E0DEBFCDBF21
S11300600E9436000C9473000C94000041E032E0CE
S113007024E098E0B89AC09888B3842788BB5FE3EB
S11300806DE083E0515060408040E1F700C0000023
S1130090B99AC19888B3832788BB5FE36DE083E096
S11300A0515060408040E1F700C00000BA9AC29805
S11300B088B3822788BB5FE36DE083E051506040E2
S11300C08040E1F700C00000BB9AC39888B3892739
S11300D088BB5FE36DE083E0515060408040E1F70E
S10D00E000C00000C7CFF894FFCF62
S9030000FC
