:100000000C942A000C943F000C943F000C943F0089
:100010000C943F000C943F000C943F000C943F0064
:100020000C943F000C943F000C943F000C943F0054
:100030000C943F000C943F000C943F000C943F0044
:100040000C943F000C943F000C943F000C943F0034
:100050000C943F0011241FBECFE5D8E0DEBFCDBF1A
:1000600010E0A0E6B0E0E2EEF2E002C005900D92F2
:10007000A638B107D9F70E944D010C946F010C947A
:10008000000080FF02C0949A01C0949881FF02C0D2
:10009000959A01C0959882FF02C0969A01C09698E1
:1000A00083FF02C0979A089597980895CF93C82F19
:1000B000C19A82958F700E944100C198C19A8C2F7D
:1000C0000E944100C19880E18A95F1F700C0CF916C
:1000D0000895C2980E9456000895C29A0E94560040
:1000E0000895CF93DF93EC018881882331F0219626
:1000F0000E946D0089918111FBCFDF91CF9108950E
:1001000090E4699F800D112480680E946900089521
:1001100081E00E94690083EF91E00197F1F700C050
:1001200000000895CF938C9A8D9A8E9A8F9AB99ADF
:10013000BA9A85EA9EE00197F1F700C00000C298E4
:10014000C198C3E0C19A83E00E944100C19881EE4A
:1001500094E00197F1F700C00000C15099F7C19AEF
:1001600082E00E944100C19889EF90E00197F1F789
:1001700000C0000088E20E94690088E00E946900D7
:1001800081E00E94690083EF91E00197F1F700C0E0
:10019000000086E00E9469008CE00E946900CF9117
:1001A00008958130910509F461C08430910509F406
:1001B0005DC087309105C1F459C0419145130EC00F
:1001C00002C020E030E0F901EE59FF4F81818C93AD
:1001D00008956C9301970E94D10008952F5F3F4FBF
:1001E0002930310551F7F5CF009781F0E09160009B
:1001F000F0916100E80FF91F40816091620046179D
:1002000009F1A3E6B0E021E030E018C0E091600021
:10021000F0916100808190916200891739F090918E
:100220006300981334C0A1E0B0E002C0A0E0B0E0E9
:10023000AE59BF4F11968C91808308955D915413F0
:100240000FC002C020E030E0D901AE59BF4F119677
:100250008C9180830895608302970E94D100089555
:100260002F5F3F4F2530310549F7F5CFA091600052
:10027000B0916100A80FB91F5C91609162005617A0
:1002800009F49FCFE3E6F0E021E030E096CF089557
:1002900087E090E00E94D10008950E9492000E94A1
:1002A000880060E080E00E9480008CE690E00E9480
:1002B000710061E080E00E94800080916000909178
:1002C00061000E9471000E9448012FEF8FE193E0CE
:1002D000215080409040E1F700C00000E0CFF8944A
:0202E000FFCF4E
:1002E2007C0030313233343536373839437A6173F2
:1002F20020647A69616C616E69613A0030303A302B
:06030200303A303000002B
:00000001FF
