S00C000046616C612E73726563A4
S11300000C942A000C9434000C9434000C943400A6
S11300100C9434000C9434000C9434000C9434008C
S11300200C9434000C9434000C9434000C9434007C
S11300300C9434000C9434000C9434000C9434006C
S11300400C9434000C9434000C9434000C9434005C
S11300500C94340011241FBECFE5D8E0DEBFCDBF21
S11300600E9436000C947A000C9400008FEF87BB3A
S1130070C09A8FE39CE90197F1F700C00000C19A90
S1130080C0988FE39CE90197F1F700C00000C29A81
S1130090C1988FE39CE90197F1F700C00000C39A6F
S11300A0C2988FE39CE90197F1F700C00000C49A5D
S11300B0C3988FE39CE90197F1F700C00000C59A4B
S11300C0C4988FE39CE90197F1F700C00000C69A39
S11300D0C5988FE39CE90197F1F700C00000C79A27
S11300E0C6988FE39CE90197F1F700C00000C09A1D
S10B00F0C798BFCFF894FFCFBD
S9030000FC
