:100000000C942A000C9434000C9434000C943400AA
:100010000C9434000C9434000C9434000C94340090
:100020000C9434000C9434000C9434000C94340080
:100030000C9434000C9434000C9434000C94340070
:100040000C9434000C9434000C9434000C94340060
:100050000C94340011241FBECFE5D8E0DEBFCDBF25
:100060000E94A1000C94A4000C94000080FF02C028
:10007000949A01C0949881FF02C0959A01C0959806
:1000800082FF02C0969A01C0969883FF02C0979A99
:10009000089597980895CF93C82FC19A82958F702D
:1000A0000E943600C198C19A8C2F0E943600C198D8
:1000B00080E18A95F1F700C0CF910895C2980E941F
:1000C0004B000895CF938C9A8D9A8E9A8F9AB99AF5
:1000D000BA9A85EA9EE00197F1F700C00000C29845
:1000E000C198C3E0C19A83E00E943600C19881EEB6
:1000F00094E00197F1F700C00000C15099F7C19A50
:1001000082E00E943600C19889EF90E00197F1F7F4
:1001100000C0000088E20E945E0088E00E945E004D
:1001200081E00E945E0083EF91E00197F1F700C04B
:10013000000086E00E945E008CE00E945E00CF918D
:0C01400008950E946200FFCFF894FFCFEA
:00000001FF
