:100000000C942A000C9434000C9434000C943400AA
:100010000C9434000C9434000C9434000C94340090
:100020000C9434000C9434000C9434000C94340080
:100030000C9434000C9434000C9434000C94340070
:100040000C9434000C9434000C9434000C94340060
:100050000C94340011241FBECFE5D8E0DEBFCDBF25
:100060000E9436000C9449000C940000B89A81E07C
:1000700087BBD0981ABAC89BFECFC09A2FEF80E7F3
:1000800092E0215080409040E1F700C00000C0980D
:06009000F2CFF894FFCF4F
:00000001FF
